:1000000000500020CD0F0000F50F0000A50E0000ED
:1000100000000000000000000000000000000000E0
:10002000000000000000000000000000F50F0000CC
:100030000000000000000000F50F0000F50F0000B8
:10004000F50F0000F50F0000F50F0000F50F0000A0
:10005000F50F00002D060000F50F0000F50F000061
:10006000F50F0000F50F0000F50F0000F50F000080
:10007000F50F0000F50F0000F50F0000F50F000070
:10008000F50F0000F50F0000C9030000F50F000098
:10009000F50F0000F50F0000F50F0000F50F000050
:1000A000F50F0000F50F0000F50F0000F50F000040
:1000B000F50F0000F50F0000F50F000010B5064C1D
:1000C0002378002B07D1054B002B02D0044800E019
:1000D00000BF0123237010BD7C0000200000000041
:1000E000CC250000044B10B5002B03D00349044875
:1000F00000E000BF10BDC0460000000080000020EE
:10010000CC250000402292029A1A92467047C046BF
:10011000174B002B00D1134B9D46FFF7F3FF002137
:100120008B460F461348144A121A01F0A9F80E4BD9
:10013000002B00D098470D4B002B00D09847002093
:10014000002104000D000D48002802D00C4800E0FA
:1001500000BF01F055F82000290000F049FB01F034
:1001600039F8C04600000800000000000000000050
:10017000005000207C00002014010020000000003E
:100180000000000070B5002300E001330F2B0DD8F4
:1001900001249C402142F8D004685E000325B5404C
:1001A000AC431500B5402C430460EEE770BD10B5BC
:1001B0008369140E8C4023438361C3691202120ABF
:1001C0008A401A43C26110BD10B5082823D01828F0
:1001D0002DD028283DD0102843D040284FD050287B
:1001E00061D0582822D1404A916840480378DCB257
:1001F0000133DBB20370CBB23D490B5513683C2190
:100200008B4324390B4313603A4B01221A703A4B4B
:1002100000221A700AE0394B1B785B00324A936067
:1002200013683C218B4334390B43136010BD344AAF
:100230001378D9B20133DBB21370324B5B5CDBB2A3
:10024000294A936013683C218B4334390B43136074
:10025000ECE7254A13683C218B4314390B431360A8
:10026000E4E7264B1B785B00012213431E4A936090
:1002700013683C218B4334390B431360D6E71E4B84
:100280001B78012B07D9184A13683C218B4330395E
:100290000B431360CAE7144A13683C218B4334397B
:1002A0000B431360C2E7104B9968104A1378D8B219
:1002B0000133DBB21370CBB20D490B541378DBB2B0
:1002C0000D4A1278934207D2074A13683C218B43A8
:1002D00030390B431360A9E7034A13683C218B4371
:1002E00034390B431360A1E700000240AF00002047
:1002F000BC000020B8000020F4000020B600002060
:10030000B7000020B000002008281ED0182828D0F0
:10031000202838D0282823D1254B1B78DBB2254A4A
:100320001278934239D8224A1378D9B20133DBB21A
:100330001370214B5B5CDBB2204A936013683C2155
:100340008B4334390B4313600AE01D4B1B785B0071
:100350001A4A936013683C218B4334390B43136072
:100360007047134A1378D9B20133DBB21370124BC2
:100370005B5CDBB2114A936013683C218B433439D8
:100380000B431360ECE70D4B1A6818210A431A60FF
:100390001A6810310A431A60E2E7084A13683C21E0
:1003A0008B4324390B431360064B01221A70D7E7A5
:1003B000B7000020F4000020B00000200000024040
:1003C000B6000020B800002010B5084BD8685B6963
:1003D000DB0707D4064B1B68002B02D0044B1B68BD
:1003E000984710BD014800F0FDFCFAE7000002400C
:1003F000F8000020A023DB05D9688022D2020A433E
:10040000DA60DA6804490A40DA60044B044A5A6246
:100410000322DA607047C046FFFFFBFF0040154033
:10042000FE08003010B5042000F02AFB102000F078
:1004300055FB0021072000F065FB012000F020FBA8
:10044000012000F04BFB1F4800F060FC1E4B996838
:10045000E022D2020A439A605969C02292040A43F8
:100460005A619A6919490A409A61194C200000F0B2
:100470000FFB802100228900200000F0BFFAA0239A
:10048000DB0533229A649A6C12490A409A64996C8B
:10049000CC2292030A439A641A6C0F490A401A64E8
:1004A000196CCC2292010A431A640C4C00222021C0
:1004B0002000FFF767FE0A4A05212000FFF777FEBC
:1004C00010BDC04600A24A0400020050FFF0FFFF2A
:1004D0000200805EFFFF00FFFF00FFFF8040005032
:1004E0000100010010B50B4800F0D2FA0A4C0B498C
:1004F000200000F053FC00236B220021200000F0BC
:100500007BFC200000F073FC054B8022D2021A60B5
:1005100010BDC0460800004000000240801A0600DE
:1005200000E100E000231F4A13701F4A11701F4AA8
:100530006B2111701E4A107053701E4A13701E4AB0
:1005400013701E4B1E4A1A601E4A13682F398B43C4
:100550001C390B431360184B1B78002BFBD0134B3B
:100560006B221A70124B18700023124A1370124A31
:1005700013701370114B144A1A60124A13683C210D
:100580008B431C390B4313600B4B1B78002BFBD0A8
:100590000E4B1B78002B00D170470D4B1878C0B262
:1005A000FAE7C046AF000020F4000020B6000020AB
:1005B000B0000020B7000020B8000020F8000020A4
:1005C0000903000000000240C901000000000020F3
:1005D000BC0000200D4B1A700D4B6B221A700D4B96
:1005E0001870597000230C4A13700C4A13700C4B8E
:1005F0000C4A1A600C4A13683C218B431C390B438C
:100600001360064B1B78002BFBD07047F4000020D2
:10061000B6000020B0000020B7000020B800002085
:10062000F80000200903000000000240044B1B6A90
:100630009B0604D5024B20221A62024B1B687047AE
:100640008040005094420050F8B5CE46474680B5F1
:100650000C212220FFF766FF574D2B781B0268788C
:10066000184300B2554B1880554E0A22310000F055
:1006700003FE0700300000F0A1FE0200514C3900DB
:10068000200000F069FC504F02223900200000F0E9
:1006900063FCAB781B02E878184300B24B4B188020
:1006A0000A22310000F0E8FD8046300000F086FEAE
:1006B00002004146200000F04FFC022239002000D9
:1006C00000F04AFC2B791B026879184300B2404BBA
:1006D00018800A22310000F0CFFD8046300000F083
:1006E0006DFE02004146200000F036FC0222390077
:1006F000200000F031FC374B984602221900200000
:1007000000F02AFCAA791202EB791343324A91468F
:10071000138005223149200000F01EFC4B460020CA
:10072000185E0A22310000F0A7FD01000A22200015
:1007300000F012FC02223900200000F00DFC2B7AA0
:100740001B02687A184300B2254B18800A22310038
:1007500000F092FD01000A22200000F0FDFB0222C1
:100760003900200000F0F8FBAB7A1B02E87A18434E
:1007700000B21C4B18800A22310000F07DFD010000
:100780000A22200000F0E8FB02223900200000F0DD
:10079000E3FB32220021280000F072FD12491348C9
:1007A00000F0B2F802224146200000F0D5FBC0BCA8
:1007B000B946B046F8BDC046BC00002098000020F5
:1007C000A000002000401540142400009A000020E2
:1007D0009C00002018240000EE0000201C240000D3
:1007E000F0000020F200002010270000000001406F
:1007F00010B5A022D20580235B005921D150433986
:10080000D1507231D150D358002BF2D0FFF70AFEED
:10081000A022D20580235B000021D150144B20225E
:100820001A60FFF7E7FD134C0121200000F076FB72
:10083000FFF758FE01210F20FFF774FE0E4B1870D2
:1008400011220E49200000F087FB012260211020B8
:10085000FFF7C0FE012262211120FFF7BBFEFFF768
:10086000F3FE03220021064800F00AFDF7E7C04628
:1008700000E100E000401540FC00002024240000BE
:10088000AC00002030B589B06946194B0A0032CB64
:1008900032C232CB32C212CB12C2164B984211D0A6
:1008A000154B984214D0154B984217D0144B5A69E7
:1008B000120D07231340022B16D09B006A4698584E
:1008C00009B030BD0E4B5A69120A07231340F2E7F4
:1008D0000B4B5A69120B07231340ECE7084B5A697C
:1008E000120C07231340E6E7064B1868E8E7C046FA
:1008F00038240000000001400001014000001140C8
:10090000000200500C000020F8B505000E00FFF7B3
:10091000B9FF07000100244B186800F0C9FB441C14
:1009200000232B606B61214B9F4208D8FA239B0068
:100930009E420BD31D4B9E420AD91C4E08E0632EEB
:100940001CD91A4B9E4203D9184E01E0FA26B60074
:10095000164B9F4214D83900154800F0A9FB01003E
:1009600073019B1B98008019C00000F0A1FB0026BA
:1009700068608023DB0533432B600EE06426E7E7E5
:100980000A49380000F094FB7043060EF0D0711C49
:1009900000F08EFBECE7C046013C002CFBD12B683D
:1009A0009B01FCD4F8BDC0460C00002040420F0063
:1009B00000CA9A3B10B500F023FB054B1B695B0690
:1009C00003D5044B1868400810BD024B1868FBE7BC
:1009D000000200500C00002010B500F011FB054B88
:1009E0001B691B0603D5044B1868400810BD024B59
:1009F0001868FBE7000200500C000020F0B587B03B
:100A000002AC1C4BE0CBE0C41B68236000230093C6
:100A100020330193830AFF2425001D401C4210D07F
:100A2000840C032323409B006C461C59124B9C46AC
:100A30006444236847091F263E40B540AB431A4330
:100A40002260430E072214001C401A4210D0020FED
:100A5000032313409B0002AA9A58084B9C46624409
:100A60001368000D1F2528408440A34319431160DB
:100A700007B0F0BD582400001802005010020050CA
:100A8000024A1368034313607047C04600020050D7
:100A900070B584B001AA0A4B1033110070CB70C13D
:100AA000830F9B009B58074A944663441A681F2192
:100AB00008401E3981400A431A6004B070BDC04628
:100AC0005824000004020050034A116A80235B028C
:100AD0000B4313627047C04600020050074A084BA0
:100AE000DB680340834204D0531E002A03DD1A0052
:100AF000F5E7012070470020FCE7C04680F52000A4
:100B000000020050F8B506000F00104CE3681025F5
:100B10001D4023680422134323601020FFF7DEFFEB
:100B20002369072213432361A1690F2399433943A2
:100B3000A161206990433043206100F061FA002DEB
:100B400003D1236804218B432360F8BD00020050C9
:100B5000F0B5DE4657464E46C0B584B005000C00E1
:100B6000FFF7B2FF002D19D1574A136801210B433B
:100B700013600120FFF7B2FFAB460226534B9946A4
:100B8000534A544BE318934226D9534A534BE31824
:100B9000934212D8640001239A461FE04A4A136820
:100BA00004210B4313601020FFF798FF80231B03E1
:100BB0009B4604264A4B9946E2E74A4A4A4BE318C9
:100BC000934203D8A40003239A4607E0002D51D096
:100BD0003D4B464A1A6250E000239A460023019397
:100BE000009301256D421BE0E31A0DE00132404BFA
:100BF0009A4214D8030053433E495F183E498F423E
:100C0000F4D89C42F0D21B1B9D42EFD9002B03D09D
:100C1000019600921D00E9E7019600921D00013641
:100C2000212E0AD83100484600F042FA334BC21850
:100C3000334B9A42F3D80222D9E753469B035A46D4
:100C40001343019CA21E52021343009DAA1E13438C
:100C50001D4A13620420FFF741FF5346591C6143AC
:100C6000484600F025FA684304B0E0BCBB46B246F3
:100C7000A946F0BD144B234A1A620420FFF72EFF49
:100C8000214B0393104B1B6AA022D202134219D1AD
:100C90001A0315D512489A03E6D4990B03220A4089
:100CA00003A9895CDC05E40D02345B0A1F221340B2
:100CB000023380086043594300F0FAF98000D3E71B
:100CC0000248E8E70020CFE700020050001BB70011
:100CD000FFE0F505FF1E0AFA7FF0FA027F0F05FD1F
:100CE0000080510140787D01C08782FE324C0800AF
:100CF00001020000001F0AFA00E1F505FF95E7FF79
:100D0000FEB9DB002E4400000102020470B50400AD
:100D10001E4BDB6810261E401D4B984204D81D4B0D
:100D2000984202D81C4C00E0194C184D2B68042244
:100D300013432B601020FFF7D1FE2B6907221343CA
:100D40002B61AB6908329343AB61EB68DB0711D5CC
:100D500061000020FFF7FCFE040001210220FFF7E4
:100D6000D1FE002E04D1094A136804218B4313607D
:100D7000600870BD610080200003FFF7E9FE0400F9
:100D8000024BDB6810261E40E7E7C0460002005019
:100D900000A24A043F787D0140787D0170B50400CF
:100DA0000E000F4B984217D0FFF704FE0500A80075
:100DB00040194000B10000F07BF905300A2100F035
:100DC00077F9431E23612368402213432360810087
:100DD000280000F06DF970BDFFF7FEFD0500E6E7A5
:100DE00000001240436901221343436170470368C6
:100DF000802213430360704702290BD003290DD0D2
:100E0000012903D052001343436002E05200134310
:100E10008361704752001343C361FAE752001343E2
:100E20000362F6E710B504000168104800F030FADC
:100E300061680F4800F02CFAA1680E4800F028FA0B
:100E4000E1680D4800F024FA21690C4800F020FA0E
:100E500061690B4800F01CFAA1690A4800F018FA11
:100E6000E169094800F014FA10BDC046742400007E
:100E7000802400008C24000098240000A42400009A
:100E8000B0240000BC240000C824000010B50400F9
:100E9000034800F089FA2000FFF7C4FFFEE7C046D0
:100EA000D4240000064B04207146084203D0EFF31F
:100EB00009807146EAE7EFF30880E7E7FEE7C046FE
:100EC0008D0E000010B51000130005E000240C5733
:100ED0000B4B1C60130001315A1E002B0FD0084B26
:100EE0009B691B02FBD40023CB560A2BEED1044B8B
:100EF0000D241C60024B9B691B02FBD4E6E710BD6E
:100F000000000540044B9B695B04FBD4024B1B684B
:100F10000B7001207047C0460000054043680B433A
:100F200043600A4B984207D0094B984209D0094BBD
:100F3000802252011A607047064B802252011A60CB
:100F4000F9E7044B802292011A60F4E700000540A3
:100F50000000154000E100E0F0B504000F001600AD
:100F6000002502E07B5D23600135B5420DD00021F4
:100F7000A26980235B05100018401A42F2D10131AA
:100F80008023DB059942F3D3F0BD2800FCE710B5C0
:100F900000F01AF9582303600120404210BD10B53B
:100FA00000F012F9582303600120404210BD10B533
:100FB00000F00AF958230360002010BD10B500F0BE
:100FC00003F9582303600120404210BD0649074A37
:100FD000074B9B1A03DD043BC858D050FBDC00F0E4
:100FE00065F8FFF795F80000D82500000000002004
:100FF0007C000020FEE7C046ABBE74469847204701
:1010000030B583B01F4B1A69072414401E4A019261
:101010001B6AA022D202134232D11A032ED51B48DA
:101020009A0311D4990B03220A4001A9895CDD05BA
:10103000ED0D02355B0A1F2213400233800868431E
:10104000594300F035F88000114B1860022C02D093
:10105000A400104BE0580B4B9B690F211940013144
:1010600000F026F80C4B18600C4B9C4660440C4971
:1010700000F01EF80B4B186003B030BD0A48CFE7F4
:101080000020E1E70002005001020204008051014B
:1010900008000020EC2400000C00002020A1070024
:1010A00040420F0004000020001BB7007047000002
:1010B000002243088B4274D303098B425FD3030A97
:1010C0008B4244D3030B8B4228D3030C8B420DD3AA
:1010D000FF22090212BA030C8B4202D31212090238
:1010E00065D0030B8B4219D300E0090AC30B8B4276
:1010F00001D3CB03C01A5241830B8B4201D38B0324
:10110000C01A5241430B8B4201D34B03C01A5241C8
:10111000030B8B4201D30B03C01A5241C30A8B420B
:1011200001D3CB02C01A5241830A8B4201D38B02F6
:10113000C01A5241430A8B4201D34B02C01A52419A
:10114000030A8B4201D30B02C01A5241CDD2C3090C
:101150008B4201D3CB01C01A524183098B4201D388
:101160008B01C01A524143098B4201D34B01C01A73
:10117000524103098B4201D30B01C01A5241C308EB
:101180008B4201D3CB00C01A524183088B4201D35A
:101190008B00C01A524143088B4201D34B00C01A46
:1011A0005241411A00D20146524110467047FFE7B2
:1011B00001B5002000F006F802BDC0460029F7D0B6
:1011C00076E770477047C046014B18687047C046C5
:1011D00010000020084B10B50400002B02D00021A5
:1011E00000E000BF054B1868836A002B00D09847C9
:1011F000200001F001F9C046000000000C250000AD
:1012000070B500260C4D0D4C641BA410A64209D1EC
:10121000002601F0F3F80A4D0A4C641BA410A64204
:1012200005D170BDB300EB5898470136EEE7B30027
:10123000EB5898470136F2E7740000207400002054
:101240007400002078000020931E10B50C00222BA3
:1012500004D900231C000B70200010BD0A2A09D1FC
:10126000002807DA2D230B7001214042611800F09D
:10127000ADF8F1E70021F9E710B5FFF7E5FF10BD84
:1012800003008218934200D1704719700133F9E7C7
:101290000FB40B4B13B51C68002C05D0A369002BB1
:1012A00002D1200000F0C4FA05AB2000049AA16826
:1012B000019300F0E1FC16BC08BC04B01847C0461E
:1012C0001000002070B505000E00002804D08369CE
:1012D000002B01D100F0ACFAAB69AC68002B02D155
:1012E000280000F0A5FA2D4B9C4222D16C68636E59
:1012F000DB0705D4A3899B0502D4A06D00F039FB60
:10130000A3891B0702D52369002B29D121002800BE
:1013100000F0E8F8002823D001256D42636EDB075A
:1013200005D4A3899B0502D4A06D00F023FB2800FF
:1013300070BD1B4B9C4201D1AC68D8E7194B9C4255
:10134000D5D1EC68D3E70136A360002B04DAA2699B
:101350009A4216DC0A2914D023685A1C226019709C
:10136000A3683178013B0029EDD1A360002B0FDA8F
:10137000280022000A3100F05FF80A25431CCDD175
:10138000CAE72200280000F057F8431CE8D1C3E761
:101390000A2523685A1C22601D70BFE758250000EB
:1013A000782500003825000010B5034B01001868AF
:1013B000FFF788FF10BDC046100000200023C25C6C
:1013C0000133002AFBD1581E70470000F0B50C0015
:1013D00016008DB025220700164902A800F038FB40
:1013E000621E0092B31E02AA00250192222B04D98C
:1013F00025702C0020000DB0F0BD38003100FFF743
:10140000DDFE0B00019A2900D35C009A013553558B
:101410003B0007009E42F0D90023220063550B00D9
:10142000C81A8342E6DD1078E55C1570E05401329D
:10143000013BF5E710250000F8B505000E0014008B
:10144000002804D08369002B01D100F0F1F9224B70
:101450009C422ED16C68A369A360A3891B0732D577
:101460002369002B2FD023682269F7B2981A636989
:10147000F6B2834205DC2100280000F037F900288D
:1014800027D1A3680130013BA36023685A1C226066
:101490001F706369834204D0A389DB0707D50A2E36
:1014A00005D12100280000F021F9002811D13000D9
:1014B000F8BD0A4B9C4201D1AC68CCE7084B9C427A
:1014C000C9D1EC68C7E72100280000F00BF800281C
:1014D000C9D001267642EAE75825000078250000A9
:1014E00038250000374B70B51D6806000C00002D34
:1014F00005D0AB69002B02D1280000F099F9324BDE
:101500009C420FD16C680C23E25E93B211072DD47C
:10151000D90611D409230120336037331343A38143
:10152000404270BD294B9C4201D1AC68EBE7284B8F
:101530009C42E8D1EC68E6E75B0713D5616B0029B4
:1015400008D023004433994202D0300000F08AFAD8
:10155000002363632422A3899343A3810023636050
:10156000236923600823A2891343A3812369002BE5
:101570000BD1A0218022A389890092000B409342C5
:1015800003D02100300000F01FFA0C22A35E0120DE
:101590001A0099B2024003420FD00022A260626991
:1015A0005242A261002022698242BAD10A06B8D50D
:1015B00040221343A3810138B3E7880700D462694E
:1015C000A260EFE7100000205825000078250000F9
:1015D00038250000F7B58B8905000C001A075FD489
:1015E0004A68002A04DC0A6C002A01DC0020FEBDE7
:1015F000E76A002FFAD0002280212E682A601A00A4
:1016000049010A400B4234D0606DA3895B0706D5BF
:101610006368C01A636B002B01D0236CC01A0200F0
:10162000216A00232800E76AB847A189431C06D134
:101630002B681D2B31D82C4ADA40D3072DD5002337
:10164000636023692360CB0405D5431C02D12B685A
:10165000002B00D16065616B2E600029C6D023008D
:101660004433994202D0280000F0FCF90020606366
:10167000BDE701232800216AB847431CC5D12B6868
:10168000002BC2D01D2B01D0162B01D12E60ADE74F
:101690004023A2891343A381A9E740230B43FAE720
:1016A0000F69002FA2D00A680F60D21B019200229E
:1016B0009B0700D14A69A260019B002B00DC95E7E3
:1016C0003A002800019B216AA66AB047002806DC80
:1016D00040230120A28940421343A38187E7019B55
:1016E0003F181B1A0193E7E7010040200B6970B512
:1016F00005000C00002B02D10025280070BD002839
:1017000004D08369002B01D100F092F8144B9C4265
:101710001BD16C680C22A35E002BEDD0626ED20749
:1017200004D49B0502D4A06D00F023F92800210009
:10173000FFF750FF636E0500DB07DED4A3899B052E
:10174000DBD4A06D00F016F9D7E7064B9C4201D11F
:10175000AC68DFE7044B9C42DCD1EC68DAE7C046BA
:10176000582500007825000038250000002310B51A
:101770000400036043608360818143661900C28175
:1017800003614361836108225C30FFF779FD054BFB
:1017900024626362044BA362044BE362044B236341
:1017A00010BDC046152200003D2200007522000039
:1017B000A122000010B5024900F0BAF810BDC046E1
:1017C000ED16000070B568254A1E55430E0029002D
:1017D000743100F0B3F9041E08D000212A00016022
:1017E00046600C30A0606832FFF74AFD200070BDF3
:1017F00010B5024800F0BDF810BDC046050100203C
:1018000010B5024800F0B6F810BDC0460501002032
:1018100010B5024800F0ADF810BDC046060100202A
:1018200010B5024800F0A6F810BDC0460601002021
:1018300013B50400FFF7ECFFA369002B02D0FFF7FC
:10184000EFFF13BDA364E3642365134B134A1B68C6
:10185000A2620193A34201D10123A361200000F001
:101860001FF86060200000F01BF8A060200000F06E
:1018700017F800220421E0606068FFF777FF01227B
:101880000921A068FFF772FF02221221E068FFF72A
:101890006DFF0123A361D2E70C250000B5170000FE
:1018A000F8B50700FFF7A4FF1F4B1E68B369002BB4
:1018B00002D13000FFF7BCFF4836B4687368013BC3
:1018C00004D53368002B22D03668F6E70C22A55EDB
:1018D000002D1AD12000154B5830E360656600F0EA
:1018E00047F8FFF78DFF2000082229002560A5603A
:1018F000656025616561A5615C30FFF7C1FC6563CA
:10190000A563A564E5642000F8BD6834D7E7042129
:101910003800FFF757FF041E3060D5D1FFF770FF86
:101920000C233B60EFE7C0460C2500000100FFFFE1
:10193000F7B5040006000027019148346368A568E4
:101940000093009B013B009304D52468002CF5D143
:101950003800FEBDAB89012B08D90E22AB5E0133E6
:1019600004D029003000019B984707436835E8E719
:10197000704770477047000070B50E001D000E23C1
:10198000C95E140096B0002908DA0C22B35E00226A
:101990002A601B0611D48023DB000FE06A4600F0AA
:1019A000ABFC0028F1DBF02301991B021940054B29
:1019B000C9184B4259412960EDE7402300202360BC
:1019C00016B070BD00E0FFFFF7B502268B89050059
:1019D0000C00334206D023004733236023610123E8
:1019E0006361F7BD6A4601ABFFF7C6FF00990700C8
:1019F000280000F0A3F8002808D10C22A35E9A0565
:101A0000EFD4032293431E43A681E4E70F4BAB625E
:101A10008023A28920601343A381009B206163611E
:101A2000019B002B0DD028000E23E15E00F076FC18
:101A3000002806D00322A38993431A0001231343ED
:101A4000A381A0890743A781CBE7C046B517000053
:101A5000002310B59A4200D110BDCC5CC4540133B0
:101A6000F8E7000070B50500002910D00C1F2368AE
:101A7000002B00DAE418280000F082FC1D4A1368ED
:101A8000002B05D163601460280000F081FC70BD5C
:101A9000A34208D9216860188342F3D118685B68B3
:101AA00041182160EEE71A005B68002B01D0A342C9
:101AB000F9D911685018A0420BD1206809185018A4
:101AC00011608342E0D118685B684118116053606F
:101AD000DAE7A04202D90C232B60D5E72168601811
:101AE000834203D118685B684118216063605460C9
:101AF000CAE7C0460801002070B50F4E0D003168DE
:101B00000400002902D100F073FB3060290020009E
:101B100000F06EFB431C0AD00323C51C9D43A84262
:101B200007D0291A200000F063FB431C01D10125D6
:101B30006D42280070BDC0460C010020F7B503229D
:101B4000CB1C9343083306001F000C2B32D20C270A
:101B5000B94231D8300000F013FC324D2B681C0024
:101B6000002C2ED139003000FFF7C6FF0400431CC3
:101B70001ED12C682500002D4AD123682900E318C6
:101B80003000019300F034FB019B834243D1236872
:101B90000337FF1A03239F4308370C2F00D20C276B
:101BA00039003000FFF7A8FF431C34D02368DF1949
:101BB000276013E0002BCBDA0C23002533602800CC
:101BC000FEBD2268D11B20D40B2917D9E21927604A
:101BD000A34211D12A606368116053603000250070
:101BE00000F0D6FB07220B35231D9543EA1A9D42D0
:101BF000E5D05B1BA350E2E75A60ECE76268A342C2
:101C000001D12A60EAE75A60E8E723006468A7E7A1
:101C10002C006D68AFE70C233000336000F0B8FB98
:101C2000CDE7C04608010020936810B5013B9360E2
:101C3000002B04DA9469A34207DB0A2905D0136854
:101C4000581C10601970080010BDFFF7F5FB01006B
:101C5000F9E7F8B506000F001400D518AC4201D121
:101C6000002007E021783A003000FFF7DDFF013463
:101C7000431CF3D1F8BD0000F0B5A1B006000C0084
:101C80001F000392002804D08369002B01D1FFF7C5
:101C9000CFFD8E4B9C421CD17468636EDB0705D46C
:101CA000A3899B0502D4A06DFFF763FEA3891B07E0
:101CB00002D52369002B1DD121003000FFF712FC53
:101CC000002817D0636EDB070DD50120404221B0FC
:101CD000F0BD7F4B9C4201D1B468DEE77D4B9C4256
:101CE000DBD1F468D9E7A3899B05EED4A06DFFF79B
:101CF00041FEEAE7002308AD6B6120336B761033B9
:101D0000AB760797039F3B78002B01D0252B4ED154
:101D1000039BFB1A0593039B9F420DD0059B21005B
:101D20003000039AFFF795FF431C00D1B5E06A69C4
:101D3000059B944663446B613B78002B00D1ACE07B
:101D400001227B1C0393002352426A6004A954328F
:101D500052182B60EB60AB601370AB65039B0522E0
:101D600019785D4800F000FB039B5F1C002820D120
:101D70002A68D30604D5532304A95B1820211970BF
:101D8000130704D5532304A95B182B211970039B57
:101D90001B782A2B16D00021EB68039F3A78781C19
:101DA000303A8446092A4FD9002911D117E001376A
:101DB000A9E7494B2A68C01A0123834013432B60CB
:101DC0000397CBE7079B191D1B680791002B01DBCD
:101DD0000B9304E05B42EB60022313432B603B78E0
:101DE0002E2B0AD17B782A2B37D1079B02371A1D5D
:101DF0001B680792002B2DDB0993032239783748A3
:101E000000F0B2FA002807D0344B2A68C01A4023E9
:101E10008340134301372B6039787B1C06223048FE
:101E20000393297600F0A0FA002845D02D4B002B13
:101E300027D10722079B07339343083307936B6926
:101E4000049A9B186B615DE70A214B4367469B1818
:101E50000939A3E701235B42CEE700231A000137CB
:101E60006B603978781C30398446092903D9002BF6
:101E7000C3D00992C1E70A235A4367465218093B67
:101E8000EFE707AB0093220029003000164B00E07B
:101E900000BF0490049B0133D1D1636EDB0705D4EE
:101EA000A3899B0502D4A06DFFF764FDA3895B069F
:101EB00000D50AE70D980AE707AB00932200290036
:101EC0003000094B00F082F8E3E7C04658250000D7
:101ED0007825000038250000982500009E25000088
:101EE000A225000000000000531C0000F7B51500FB
:101EF00001938A680B690C000090934200DA13008A
:101F000022002B6043321278002A01D001332B606B
:101F100023689B0602D52B6802332B6022680623B8
:101F200017001F401A4227D0230043331B785A1E44
:101F300093412268920630D4220001990098089EAD
:101F40004332B047431C25D0062320682A68E16845
:101F500000250340042B03D18D1AEB43DB171D40F2
:101F6000A3682269934201DD9B1AED180027BD4248
:101F700020D1002010E00137E3682A689B1ABB4299
:101F8000D2DD2200012301990098089E1932B04742
:101F9000431CF0D101204042FEBD3020E118433106
:101FA000087021005A1C45310978A21843320233C7
:101FB0001170C1E72200012301990098089E1A328E
:101FC000B047431CE6D00137D1E70000F0B58BB035
:101FD00006920A0043320793059004920A7E0C0091
:101FE000109B782A07D8622A09D8002A00D1C1E0BC
:101FF000582A00D18CE026004236327022E01000D0
:1020000063381528F7D800F0DFF916001F00F6FF37
:10201000F6FFF6FFF6FF1F00F6FFF6FFF6FFF6FFEE
:10202000A80036009A00F6FFF6FFB900F6FF36006A
:10203000F6FFF6FF9E0026001A684236111D196051
:10204000136833700123A7E0086819680A1D0506A4
:102050000BD50D681A60002D03DA2D23049A6D420A
:102060001370614B0A2703931BE00D681A60410649
:10207000F1D52DB2EFE70D681968081D18602E061E
:1020800001D50D6803E06D06FBD50D68ADB2564B6A
:10209000082703936F2A00D002372300002243331E
:1020A0001A706368A360002B03DB0422216891434C
:1020B0002160002D02D1049E002B0CD0049E28002C
:1020C0003900FFF77BF8039B013E5B5C33702B000C
:1020D00005009F42F3D9082F09D12368DB0706D5F5
:1020E00063682269934202DC3023013E3370049B13
:1020F0009B1B2361079B210000930598069B09AA5F
:10210000FFF7F4FE431C4CD1012040420BB0F0BD60
:1021100045310A70344A03921A68216820CA1A604D
:10212000080616D5CB0702D52023194321601027B6
:10213000002DB2D1202322689A432260ADE72022ED
:1021400009680A4322602200782145321170274A2B
:10215000E1E74806E6D5ADB2E4E71A680D68101D60
:102160004969186013682E0601D5196002E06D06F2
:10217000FBD519800023049E2361BBE71A68111D5B
:102180001960166800213000626800F0EDF8002840
:1021900001D0801B6060636823610023049A137080
:1021A000A8E72369320006990598079DA847431CB4
:1021B000AAD023689B0715D4099BE0689842A5DA4A
:1021C0001800A3E72200012306990598079E1932FB
:1021D000B047431C98D00135E368099A9B1AAB427B
:1021E000F0DCE9E70025F7E7A9250000BA250000A3
:1021F000002370B5064D040008002B6000F0EEF8D7
:10220000431C03D12B68002B00D0236070BDC04657
:102210000001002070B50C000E25495F00F0C0F8E9
:10222000002803DB636D1B18636570BDA389024A38
:102230001340A381F9E7C046FFEFFFFFF8B51F0089
:102240008B8905000C001600DB0505D50E23C95E41
:102250000022022300F074F8A389054A28001340E5
:10226000A38132000E23E15E3B0000F01FF8F8BDB1
:10227000FFEFFFFF70B50C000E25495F00F060F81E
:10228000A389421C03D1054A1340A38170BD80225B
:1022900052011343A3816065F8E7C046FFEFFFFFDB
:1022A00010B50E23C95E00F015F810BD70B504001E
:1022B000080011001A000023054D2B60FEF702FEF6
:1022C000431C03D12B68002B00D0236070BDC04697
:1022D00000010020002370B5064D040008002B60AB
:1022E000FEF755FE431C03D12B68002B00D0236062
:1022F00070BDC04600010020002370B5064D0400EB
:10230000080011002B60FEF74AFE431C03D12B6826
:10231000002B00D0236070BD00010020002370B5A9
:10232000064D040008002B60FEF741FE431C03D15C
:102330002B68002B00D0236070BDC0460001002038
:1023400070B50400080011001A000023054D2B6031
:10235000FEF734FE431C03D12B68002B00D0236012
:1023600070BDC04600010020C9B28218904201D160
:102370000020704703788B42FBD00130F6E7000065
:1023800010B50248FFF7F5FA10BDC0460401002061
:1023900010B50248FFF7EEFA10BDC0460401002058
:1023A00070B50400080011001A000023054D2B60D1
:1023B000FEF7A8FD431C03D12B68002B00D023603F
:1023C00070BDC0460001002003B4714649084000BA
:1023D0004900095E49008E4403BC7047044A03006B
:1023E0001068002802D0C318136070470148FAE74C
:1023F0001001002018010020FEE7C046F8B5C046D5
:10240000F8BC08BC9E467047F8B5C046F8BC08BC8E
:102410009E467047202000000A0D00002047454FCF
:10242000200000006564656C5F736D6172745F64A9
:102430006576696573000000001BB700008000002E
:102440000000000000000000000000001027000055
:1024500000000000008051010000000004000000A6
:102460000C00000024000000000000000400000038
:102470002C000000723020203D20307825780A00A2
:10248000723120203D20307825780A0072322020D9
:102490003D20307825780A00723320203D203078A6
:1024A00025780A00723132203D20307825780A00E4
:1024B0006C7220203D20307825780A00706320203F
:1024C0003D20307825780A00707372203D203078E6
:1024D00025780A00496E2048617264204661756C57
:1024E000742048616E646C6572000000001BB700C8
:1024F0000080000000E0480410270000006CDC02AF
:1025000000000000000000000080510114000020C5
:102510003031323334353637383961626364656659
:102520006768696A6B6C6D6E6F70717273747576C3
:102530007778797A000000000000000000000000B9
:10254000000000000000000000000000000000008B
:10255000000000000000000000000000000000007B
:10256000000000000000000000000000000000006B
:10257000000000000000000000000000000000005B
:10258000000000000000000000000000000000004B
:102590000000000000000000232D302B2000686C9C
:1025A0004C00656667454647003031323334353676
:1025B00037383941424344454600303132333435AF
:1025C00036373839616263646566000000000000D8
:0825D00034DBFF7F0100000075
:1025D800010000004700000000E0480400E0480453
:1025E8001400002000000000582500007825000095
:1025F8003825000000000000000000000000000076
:1026080000000000000000000000000000000000C2
:1026180000000000000000000000000000000000B2
:1026280000000000000000000000000000000000A2
:102638000000000000000000000000000000000092
:0C26480000000000E5000000BD000000E4
:0400000300000FCD1D
:00000001FF
